{
  "contractName": "Swap",
  "abi": [
    {
      "inputs": [],
      "stateMutability": "payable",
      "type": "constructor",
      "payable": true
    },
    {
      "inputs": [
        {
          "internalType": "uint256",
          "name": "_amount",
          "type": "uint256"
        },
        {
          "internalType": "address payable",
          "name": "_receiver",
          "type": "address"
        },
        {
          "internalType": "uint256",
          "name": "_feeAmount",
          "type": "uint256"
        },
        {
          "internalType": "address payable",
          "name": "_bank",
          "type": "address"
        }
      ],
      "name": "transfer",
      "outputs": [],
      "stateMutability": "payable",
      "type": "function",
      "payable": true
    }
  ],
  "bytecode": "0x608060405261016a806100136000396000f3fe60806040526004361061001e5760003560e01c80637ef379f414610023575b600080fd5b6100996004803603608081101561003957600080fd5b8101908080359060200190929190803573ffffffffffffffffffffffffffffffffffffffff16906020019092919080359060200190929190803573ffffffffffffffffffffffffffffffffffffffff16906020019092919050505061009b565b005b81840393508273ffffffffffffffffffffffffffffffffffffffff166108fc859081150290604051600060405180830381858888f193505050501580156100e6573d6000803e3d6000fd5b508073ffffffffffffffffffffffffffffffffffffffff166108fc839081150290604051600060405180830381858888f1935050505015801561012d573d6000803e3d6000fd5b505050505056fea2646970667358221220a293f0bf365f570f9136d17b5a69a90e7eb9333a4b62b0236c72fcded8bd841c64736f6c634300060c0033",
  "immutableReferences": {},
  "source": "pragma solidity =0.6.12;\r\n\r\n \r\ncontract Swap { \r\n  constructor() payable public {\r\n  }\r\n\r\n    // Called transferTest to avoid naming issues with token.transfer\r\n    // FeeAmount would get hard coded as a constant in JS code by dev, not a dynamic parameter for user..\r\n  function transfer(uint256 _amount, address payable _receiver, uint _feeAmount, address payable _bank) payable public {\r\n    // Sub feeAmount from receivers amount\r\n    _amount = _amount - _feeAmount;\r\n    _receiver.transfer(_amount);\r\n    _bank.transfer(_feeAmount);\r\n  }\r\n}",
  "sourcePath": "C:/Users/ross4/Desktop/uniswap-clone/uniswap-clone/src/contracts/Swap.sol",
  "compiler": {
    "name": "solc",
    "version": "0.6.12+commit.27d51765.Emscripten.clang"
  },
  "schemaVersion": "3.2.3",
  "updatedAt": "2022-04-07T16:26:59.033Z",
  "networkType": "ethereum",
  "devdoc": {
    "kind": "dev",
    "methods": {},
    "version": 1
  },
  "userdoc": {
    "kind": "user",
    "methods": {},
    "version": 1
  }
}