{
  "contractName": "Swap",
  "abi": [
    {
      "inputs": [
        {
          "internalType": "contract Token",
          "name": "_token",
          "type": "address"
        }
      ],
      "stateMutability": "nonpayable",
      "type": "constructor"
    },
    {
      "inputs": [],
      "name": "token",
      "outputs": [
        {
          "internalType": "contract Token",
          "name": "",
          "type": "address"
        }
      ],
      "stateMutability": "view",
      "type": "function",
      "constant": true
    },
    {
      "inputs": [
        {
          "internalType": "uint256",
          "name": "_amount",
          "type": "uint256"
        },
        {
          "internalType": "address payable",
          "name": "_receiver",
          "type": "address"
        },
        {
          "internalType": "uint256",
          "name": "_feeAmount",
          "type": "uint256"
        },
        {
          "internalType": "address payable",
          "name": "_bank",
          "type": "address"
        }
      ],
      "name": "swap",
      "outputs": [],
      "stateMutability": "payable",
      "type": "function",
      "payable": true
    }
  ],
  "bytecode": "0x608060405234801561001057600080fd5b506040516103443803806103448339818101604052602081101561003357600080fd5b8101908080519060200190929190505050806000806101000a81548173ffffffffffffffffffffffffffffffffffffffff021916908373ffffffffffffffffffffffffffffffffffffffff160217905550506102b0806100946000396000f3fe6080604052600436106100295760003560e01c8063bfd479961461002e578063fc0c546a146100a6575b600080fd5b6100a46004803603608081101561004457600080fd5b8101908080359060200190929190803573ffffffffffffffffffffffffffffffffffffffff16906020019092919080359060200190929190803573ffffffffffffffffffffffffffffffffffffffff1690602001909291905050506100e7565b005b3480156100b257600080fd5b506100bb610256565b604051808273ffffffffffffffffffffffffffffffffffffffff16815260200191505060405180910390f35b81840393508273ffffffffffffffffffffffffffffffffffffffff166108fc859081150290604051600060405180830381858888f19350505050158015610132573d6000803e3d6000fd5b508073ffffffffffffffffffffffffffffffffffffffff166108fc839081150290604051600060405180830381858888f19350505050158015610179573d6000803e3d6000fd5b506000600a905060008054906101000a900473ffffffffffffffffffffffffffffffffffffffff1673ffffffffffffffffffffffffffffffffffffffff1663a9059cbb338388026040518363ffffffff1660e01b8152600401808373ffffffffffffffffffffffffffffffffffffffff16815260200182815260200192505050602060405180830381600087803b15801561021357600080fd5b505af1158015610227573d6000803e3d6000fd5b505050506040513d602081101561023d57600080fd5b8101908080519060200190929190505050505050505050565b60008054906101000a900473ffffffffffffffffffffffffffffffffffffffff168156fea2646970667358221220f8fdae60bf7ed737f2c4422c586cc4e69daec971405723711c2fbb31328b436764736f6c634300060c0033",
  "immutableReferences": {},
  "source": "pragma solidity =0.6.12;\r\n\r\n import \"./Token.sol\";\r\n\r\ncontract Swap { \r\n  Token public token;\r\n\r\n  constructor(Token _token) public {\r\n    token = _token;\r\n  }\r\n\r\n    // Called transferTest to avoid naming issues with token.transfer\r\n    // FeeAmount would get hard coded as a constant in JS code by dev, not a dynamic parameter for user..\r\n  function swap(uint256 _amount, address payable _receiver, uint _feeAmount, address payable _bank) payable public {\r\n    // Sub feeAmount from receivers amount\r\n    _amount = _amount - _feeAmount;\r\n    _receiver.transfer(_amount);\r\n    _bank.transfer(_feeAmount);\r\n\r\n    uint _rate = 10;\r\n    token.transfer(msg.sender, _amount * _rate);\r\n  }\r\n}",
  "sourcePath": "C:/Users/ross4/Desktop/uniswap-clone/uniswap-clone/src/contracts/Swap.sol",
  "compiler": {
    "name": "solc",
    "version": "0.6.12+commit.27d51765.Emscripten.clang"
  },
  "schemaVersion": "3.2.3",
  "updatedAt": "2022-04-07T16:41:07.729Z",
  "networkType": "ethereum",
  "devdoc": {
    "kind": "dev",
    "methods": {},
    "version": 1
  },
  "userdoc": {
    "kind": "user",
    "methods": {},
    "version": 1
  }
}